:100000000C945D000C9485000C9485000C94850084
:100010000C9485000C9485000C9485000C9485004C
:100020000C9485000C9485000C9485000C9485003C
:100030000C9485000C9485000C9485000C9485002C
:100040000C945B020C9485000C94CB020C94A502DA
:100050000C9485000C9485000C9485000C9485000C
:100060000C9485000C94850000000008000201003B
:100070000003040700000000000000000000000072
:10008000250028002B0000000000240027002A0083
:10009000040404040404040402020202020203032E
:1000A0000303030301020408102040800102040836
:1000B0001020010204081020B10311241FBECFEF4D
:1000C000D8E0DEBFCDBF11E0A0E0B1E0ECECF7E09E
:1000D00002C005900D92AA33B107D9F721E0AAE337
:1000E000B1E001C01D92A03EB207E1F710E0CDE5FE
:1000F000D0E004C02197FE010E94DE03CC35D10779
:10010000C9F70E94FD020C94E4030C94000090E0F7
:10011000FC01EC55FF4F249180579F4FFC018491C7
:10012000882399F090E0880F991FFC01EA57FF4F50
:10013000A591B491FC01E458FF4F859194918FB73C
:10014000F894EC91E22BEC938FBF0895AF92BF929D
:10015000CF92DF92EF92FF920F931F93CF93DF9393
:100160006C017B018B01040F151FEB015E01AE18C2
:10017000BF08C017D10759F06991D601ED91FC91E4
:100180000190F081E02DC6010995892B79F7C50111
:10019000DF91CF911F910F91FF90EF90DF90CF9063
:1001A000BF90AF900895FC01538D448D252F30E012
:1001B000842F90E0821B930B541710F0CF96089574
:1001C00001970895FC01918D828D981761F0A28DA1
:1001D000AE0FBF2FB11D5D968C91928D9F5F9F7367
:1001E000928F90E008958FEF9FEF0895FC01918D1D
:1001F000828D981731F0828DE80FF11D858D90E08A
:1002000008958FEF9FEF0895FC01918D228D892F26
:1002100090E0805C9F4F821B91098F73992708950E
:100220008AE391E00E94040121E0892B09F420E097
:10023000822F089580E090E0892B29F00E94100120
:1002400081110C9400000895FC01A48DA80FB92F12
:10025000B11DA35ABF4F2C91848D90E001968F73EE
:100260009927848FA689B7892C93A089B1898C910D
:10027000837080648C93938D848D981306C002885C
:10028000F389E02D80818F7D80830895EF92FF9226
:100290000F931F93CF93DF93EC0181E0888F9B8DA9
:1002A0008C8D98131AC0E889F989808185FF15C063
:1002B0009FB7F894EE89FF896083E889F989808186
:1002C0008370806480839FBF81E090E0DF91CF9155
:1002D0001F910F91FF90EF900895F62E0B8D10E077
:1002E0000F5F1F4F0F731127E02E8C8D8E110CC0E6
:1002F0000FB607FCFACFE889F989808185FFF5CF31
:10030000CE010E942401F1CFEB8DEC0FFD2FF11DEA
:10031000E35AFF4FF0829FB7F8940B8FEA89FB896D
:1003200080818062CFCFCF93DF93EC01888D8823CB
:10033000B9F0AA89BB89E889F9898C9185FD03C048
:10034000808186FD0DC00FB607FCF7CF8C9185FF2D
:10035000F2CF808185FFEDCFCE010E942401E9CF4D
:10036000DF91CF91089590E0FC01E859FF4F24916F
:10037000FC01EC55FF4F3491FC01E057FF4FE49135
:10038000EE23C9F0222339F0233001F1A8F4213003
:1003900019F1223029F1F0E0EE0FFF1FE458FF4F72
:1003A000A591B4918FB7F894EC91611126C0309566
:1003B0003E233C938FBF08952730A9F02830C9F021
:1003C000243049F7809180008F7D03C080918000A8
:1003D0008F7780938000DFCF84B58F7784BDDBCFAC
:1003E00084B58F7DFBCF8091B0008F778093B00074
:1003F000D2CF8091B0008F7DF9CF3E2BDACF0F9313
:100400001F93CF93DF93082F162FD42FC8E06D2FA3
:100410006170802F0E94B301D69561E0812F0E9408
:10042000B30160E0812F0E94B301C15081F7DF91D9
:10043000CF911F910F910895CF92DF92FF920F936A
:100440001F93CF93DF930AE211E0EC016C0188E087
:10045000C80ED11C60E080E00E94B301F801F0807A
:100460000E5F1F4F60E08F2D0E94B301499162E043
:100470008DE00E94FF0161E080E00E94B30160E036
:1004800080E00E94B30140E062E08DE00E94FF0145
:1004900061E080E00E94B30161E08F2D0E94B30112
:1004A000CC15DD05B9F6DF91CF911F910F91FF902B
:1004B000DF90CF9008951F920F920FB60F921124E4
:1004C0002F933F938F939F93AF93BF938091DC01C2
:1004D0009091DD01A091DE01B091DF013091DB014F
:1004E00023E0230F2D3758F50196A11DB11D209350
:1004F000DB018093DC019093DD01A093DE01B093DA
:10050000DF018091D7019091D801A091D901B091DC
:10051000DA010196A11DB11D8093D7019093D801F6
:10052000A093D901B093DA01BF91AF919F918F91C0
:100530003F912F910F900FBE0F901F90189526E8B6
:10054000230F0296A11DB11DD2CF1F920F920FB69D
:100550000F9211242F933F934F935F936F937F9349
:100560008F939F93AF93BF93EF93FF938AE391E0B1
:100570000E942401FF91EF91BF91AF919F918F91C4
:100580007F916F915F914F913F912F910F900FBE8F
:100590000F901F9018951F920F920FB60F92112473
:1005A0002F938F939F93EF93FF93E0914A01F091E4
:1005B0004B018081E0915001F091510182FD1BC0FF
:1005C0009081809153018F5F8F7320915401821726
:1005D00041F0E0915301F0E0E65CFE4F958F80938F
:1005E0005301FF91EF919F918F912F910F900FBE2B
:1005F0000F901F9018958081F4CF789484B5826015
:1006000084BD84B5816084BD85B5826085BD85B5B6
:10061000816085BD80916E00816080936E00109234
:1006200081008091810082608093810080918100AF
:100630008160809381008091800081608093800040
:100640008091B10084608093B1008091B00081609E
:100650008093B00080917A00846080937A008091CA
:100660007A00826080937A0080917A008160809322
:100670007A0080917A00806880937A001092C1009D
:10068000E0914A01F0914B0182E08083E0914601C4
:10069000F09147011082E0914801F09149018FECFF
:1006A000808310925201E0914E01F0914F0186E05B
:1006B0008083E0914C01F0914D01808180618083C5
:1006C000E0914C01F0914D01808188608083E09140
:1006D0004C01F0914D01808180688083E0914C0154
:1006E000F0914D0180818F7D808380E00E948700A2
:1006F00082E00E9487008DE00E948700CAE2D1E07C
:1007000018812296812F0E94870061E0812F0E942C
:10071000B30181E0CA33D80799F700E010E0C4EFD5
:10072000D1E080E191E00E941C022197D1F7C4EF53
:10073000D1E088E091E00E941C022197D1F7C4EF3C
:10074000D1E080E091E00E941C022197D1F70115D1
:10075000110529F30E941001882309F30E9400006B
:10076000DECFEAE3F1E01382128288EE93E0A0E0AC
:10077000B0E084839583A683B7838CE191E0918375
:10078000808385EC90E09587848784EC90E0978760
:10079000868780EC90E0918B808B81EC90E0938B4E
:1007A000828B82EC90E0958B848B86EC90E0978B2B
:1007B000868B118E128E138E148E0895EE0FFF1FEE
:0C07C0000590F491E02D0994F894FFCF0F
:1007CC006666667E3C1818186666666666667E3CCB
:1007DC006666667E7E666666000000004601A600C0
:1007EC00D30093010401E200F600030004000500AD
:0A07FC0006000700080009000A00CB
:00000001FF
